{
  "contractName": "Crowdfunding",
  "abi": [
    {
      "inputs": [
        {
          "internalType": "uint256",
          "name": "_goal",
          "type": "uint256"
        },
        {
          "internalType": "uint256",
          "name": "_durationInDays",
          "type": "uint256"
        }
      ],
      "stateMutability": "nonpayable",
      "type": "constructor"
    },
    {
      "anonymous": false,
      "inputs": [
        {
          "indexed": true,
          "internalType": "address",
          "name": "contributor",
          "type": "address"
        },
        {
          "indexed": false,
          "internalType": "uint256",
          "name": "amount",
          "type": "uint256"
        }
      ],
      "name": "Contributed",
      "type": "event"
    },
    {
      "anonymous": false,
      "inputs": [
        {
          "indexed": true,
          "internalType": "address",
          "name": "contributor",
          "type": "address"
        },
        {
          "indexed": false,
          "internalType": "uint256",
          "name": "amount",
          "type": "uint256"
        }
      ],
      "name": "RefundIssued",
      "type": "event"
    },
    {
      "anonymous": false,
      "inputs": [
        {
          "indexed": true,
          "internalType": "address",
          "name": "creator",
          "type": "address"
        },
        {
          "indexed": false,
          "internalType": "uint256",
          "name": "amount",
          "type": "uint256"
        }
      ],
      "name": "Withdrawn",
      "type": "event"
    },
    {
      "stateMutability": "payable",
      "type": "fallback",
      "payable": true
    },
    {
      "inputs": [
        {
          "internalType": "address",
          "name": "",
          "type": "address"
        }
      ],
      "name": "contributions",
      "outputs": [
        {
          "internalType": "uint256",
          "name": "",
          "type": "uint256"
        }
      ],
      "stateMutability": "view",
      "type": "function",
      "constant": true
    },
    {
      "inputs": [],
      "name": "creator",
      "outputs": [
        {
          "internalType": "address",
          "name": "",
          "type": "address"
        }
      ],
      "stateMutability": "view",
      "type": "function",
      "constant": true
    },
    {
      "inputs": [],
      "name": "deadline",
      "outputs": [
        {
          "internalType": "uint256",
          "name": "",
          "type": "uint256"
        }
      ],
      "stateMutability": "view",
      "type": "function",
      "constant": true
    },
    {
      "inputs": [],
      "name": "goal",
      "outputs": [
        {
          "internalType": "uint256",
          "name": "",
          "type": "uint256"
        }
      ],
      "stateMutability": "view",
      "type": "function",
      "constant": true
    },
    {
      "inputs": [],
      "name": "totalRaised",
      "outputs": [
        {
          "internalType": "uint256",
          "name": "",
          "type": "uint256"
        }
      ],
      "stateMutability": "view",
      "type": "function",
      "constant": true
    },
    {
      "stateMutability": "payable",
      "type": "receive",
      "payable": true
    },
    {
      "inputs": [],
      "name": "contribute",
      "outputs": [],
      "stateMutability": "payable",
      "type": "function",
      "payable": true
    },
    {
      "inputs": [],
      "name": "withdraw",
      "outputs": [],
      "stateMutability": "nonpayable",
      "type": "function"
    },
    {
      "inputs": [],
      "name": "refund",
      "outputs": [],
      "stateMutability": "nonpayable",
      "type": "function"
    },
    {
      "inputs": [
        {
          "internalType": "address",
          "name": "_contributor",
          "type": "address"
        }
      ],
      "name": "getContribution",
      "outputs": [
        {
          "internalType": "uint256",
          "name": "",
          "type": "uint256"
        }
      ],
      "stateMutability": "view",
      "type": "function",
      "constant": true
    }
  ],
  "bytecode": "0x60e06040523480156200001157600080fd5b506040516200123638038062001236833981810160405281019062000037919062000146565b600082116200007d576040517f08c379a0000000000000000000000000000000000000000000000000000000008152600401620000749062000279565b60405180910390fd5b60008111620000c3576040517f08c379a0000000000000000000000000000000000000000000000000000000008152600401620000ba9062000257565b60405180910390fd5b3373ffffffffffffffffffffffffffffffffffffffff1660808173ffffffffffffffffffffffffffffffffffffffff1660601b815250508160a08181525050620151808162000113919062000309565b42620001209190620002ac565b60c081815250505050620003bd565b6000815190506200014081620003a3565b92915050565b600080604083850312156200015a57600080fd5b60006200016a858286016200012f565b92505060206200017d858286016200012f565b9150509250929050565b600062000196602d836200029b565b91507f43726f776466756e64696e673a204475726174696f6e206d757374206265206760008301527f726561746572207468616e2030000000000000000000000000000000000000006020830152604082019050919050565b6000620001fe6029836200029b565b91507f43726f776466756e64696e673a20476f616c206d75737420626520677265617460008301527f6572207468616e203000000000000000000000000000000000000000000000006020830152604082019050919050565b60006020820190508181036000830152620002728162000187565b9050919050565b600060208201905081810360008301526200029481620001ef565b9050919050565b600082825260208201905092915050565b6000620002b9826200036a565b9150620002c6836200036a565b9250827fffffffffffffffffffffffffffffffffffffffffffffffffffffffffffffffff03821115620002fe57620002fd62000374565b5b828201905092915050565b600062000316826200036a565b915062000323836200036a565b9250817fffffffffffffffffffffffffffffffffffffffffffffffffffffffffffffffff04831182151516156200035f576200035e62000374565b5b828202905092915050565b6000819050919050565b7f4e487b7100000000000000000000000000000000000000000000000000000000600052601160045260246000fd5b620003ae816200036a565b8114620003ba57600080fd5b50565b60805160601c60a05160c051610e1562000421600039600081816102d2015281816103840152818161054c015261077d0152600081816103e70152818161051001526105af015260008181610265015281816102f601526104a60152610e156000f3fe60806040526004361061008a5760003560e01c8063401938831161005957806340193883146101af57806342e94c90146101da578063590e1ae314610217578063c5c4744c1461022e578063d7bb99ba14610259576100ca565b806302d05d3f1461010557806321eff7fc1461013057806329dcb0cf1461016d5780633ccfd60b14610198576100ca565b366100ca576040517f08c379a00000000000000000000000000000000000000000000000000000000081526004016100c190610c9b565b60405180910390fd5b6040517f08c379a00000000000000000000000000000000000000000000000000000000081526004016100fc90610bdb565b60405180910390fd5b34801561011157600080fd5b5061011a610263565b6040516101279190610ba0565b60405180910390f35b34801561013c57600080fd5b50610157600480360381019061015291906108f3565b610287565b6040516101649190610cdb565b60405180910390f35b34801561017957600080fd5b506101826102d0565b60405161018f9190610cdb565b60405180910390f35b3480156101a457600080fd5b506101ad6102f4565b005b3480156101bb57600080fd5b506101c461050e565b6040516101d19190610cdb565b60405180910390f35b3480156101e657600080fd5b5061020160048036038101906101fc91906108f3565b610532565b60405161020e9190610cdb565b60405180910390f35b34801561022357600080fd5b5061022c61054a565b005b34801561023a57600080fd5b50610243610775565b6040516102509190610cdb565b60405180910390f35b61026161077b565b005b7f000000000000000000000000000000000000000000000000000000000000000081565b6000600160008373ffffffffffffffffffffffffffffffffffffffff1673ffffffffffffffffffffffffffffffffffffffff168152602001908152602001600020549050919050565b7f000000000000000000000000000000000000000000000000000000000000000081565b7f000000000000000000000000000000000000000000000000000000000000000073ffffffffffffffffffffffffffffffffffffffff163373ffffffffffffffffffffffffffffffffffffffff1614610382576040517f08c379a000000000000000000000000000000000000000000000000000000000815260040161037990610c1b565b60405180910390fd5b7f00000000000000000000000000000000000000000000000000000000000000004210156103e5576040517f08c379a00000000000000000000000000000000000000000000000000000000081526004016103dc90610c3b565b60405180910390fd5b7f0000000000000000000000000000000000000000000000000000000000000000600054101561044a576040517f08c379a000000000000000000000000000000000000000000000000000000000815260040161044190610cbb565b60405180910390fd5b6000479050600080819055503373ffffffffffffffffffffffffffffffffffffffff167f7084f5476618d8e60b11ef0d7d3f06914655adb8793e28ff7f018d4c76d505d58260405161049c9190610cdb565b60405180910390a27f000000000000000000000000000000000000000000000000000000000000000073ffffffffffffffffffffffffffffffffffffffff166108fc829081150290604051600060405180830381858888f1935050505015801561050a573d6000803e3d6000fd5b5050565b7f000000000000000000000000000000000000000000000000000000000000000081565b60016020528060005260406000206000915090505481565b7f00000000000000000000000000000000000000000000000000000000000000004210156105ad576040517f08c379a00000000000000000000000000000000000000000000000000000000081526004016105a490610c3b565b60405180910390fd5b7f000000000000000000000000000000000000000000000000000000000000000060005410610611576040517f08c379a000000000000000000000000000000000000000000000000000000000815260040161060890610c7b565b60405180910390fd5b6000600160003373ffffffffffffffffffffffffffffffffffffffff1673ffffffffffffffffffffffffffffffffffffffff16815260200190815260200160002054905060008111610698576040517f08c379a000000000000000000000000000000000000000000000000000000000815260040161068f90610bfb565b60405180910390fd5b6000600160003373ffffffffffffffffffffffffffffffffffffffff1673ffffffffffffffffffffffffffffffffffffffff168152602001908152602001600020819055503373ffffffffffffffffffffffffffffffffffffffff167fa171b6942063c6f2800ce40a780edce37baa2b618571b11eedd1e69e626e7d76826040516107239190610cdb565b60405180910390a23373ffffffffffffffffffffffffffffffffffffffff166108fc829081150290604051600060405180830381858888f19350505050158015610771573d6000803e3d6000fd5b5050565b60005481565b7f000000000000000000000000000000000000000000000000000000000000000042106107dd576040517f08c379a00000000000000000000000000000000000000000000000000000000081526004016107d490610bbb565b60405180910390fd5b60003411610820576040517f08c379a000000000000000000000000000000000000000000000000000000000815260040161081790610c5b565b60405180910390fd5b34600160003373ffffffffffffffffffffffffffffffffffffffff1673ffffffffffffffffffffffffffffffffffffffff168152602001908152602001600020600082825461086f9190610d07565b92505081905550346000808282546108879190610d07565b925050819055503373ffffffffffffffffffffffffffffffffffffffff167f62722348256371b5147820d6cad90c40fd2da1ccee18c3ed52c0bca5a61dbbab346040516108d49190610cdb565b60405180910390a2565b6000813590506108ed81610dc8565b92915050565b60006020828403121561090557600080fd5b6000610913848285016108de565b91505092915050565b61092581610d5d565b82525050565b6000610938600e83610cf6565b91507f43616d706169676e20656e6465640000000000000000000000000000000000006000830152602082019050919050565b6000610978601583610cf6565b91507f496e76616c69642066756e6374696f6e2063616c6c00000000000000000000006000830152602082019050919050565b60006109b8601683610cf6565b91507f4e6f20636f6e747269627574696f6e7320666f756e64000000000000000000006000830152602082019050919050565b60006109f8601983610cf6565b91507f4f6e6c792063726561746f722063616e207769746864726177000000000000006000830152602082019050919050565b6000610a38601583610cf6565b91507f43616d706169676e207374696c6c2061637469766500000000000000000000006000830152602082019050919050565b6000610a78602383610cf6565b91507f436f6e747269627574696f6e206d75737420626520677265617465722074686160008301527f6e203000000000000000000000000000000000000000000000000000000000006020830152604082019050919050565b6000610ade601883610cf6565b91507f476f616c20776173206d65742c206e6f20726566756e647300000000000000006000830152602082019050919050565b6000610b1e601f83610cf6565b91507f44697265637420455448207472616e73666572206e6f7420616c6c6f776564006000830152602082019050919050565b6000610b5e600c83610cf6565b91507f476f616c206e6f74206d657400000000000000000000000000000000000000006000830152602082019050919050565b610b9a81610d8f565b82525050565b6000602082019050610bb5600083018461091c565b92915050565b60006020820190508181036000830152610bd48161092b565b9050919050565b60006020820190508181036000830152610bf48161096b565b9050919050565b60006020820190508181036000830152610c14816109ab565b9050919050565b60006020820190508181036000830152610c34816109eb565b9050919050565b60006020820190508181036000830152610c5481610a2b565b9050919050565b60006020820190508181036000830152610c7481610a6b565b9050919050565b60006020820190508181036000830152610c9481610ad1565b9050919050565b60006020820190508181036000830152610cb481610b11565b9050919050565b60006020820190508181036000830152610cd481610b51565b9050919050565b6000602082019050610cf06000830184610b91565b92915050565b600082825260208201905092915050565b6000610d1282610d8f565b9150610d1d83610d8f565b9250827fffffffffffffffffffffffffffffffffffffffffffffffffffffffffffffffff03821115610d5257610d51610d99565b5b828201905092915050565b6000610d6882610d6f565b9050919050565b600073ffffffffffffffffffffffffffffffffffffffff82169050919050565b6000819050919050565b7f4e487b7100000000000000000000000000000000000000000000000000000000600052601160045260246000fd5b610dd181610d5d565b8114610ddc57600080fd5b5056fea264697066735822122044561b94a1b8b28e83c70251320553822c247b69dafba83b2d8dbf7b6e53543364736f6c63430008000033",
  "immutableReferences": {
    "3": [
      {
        "length": 32,
        "start": 613
      },
      {
        "length": 32,
        "start": 758
      },
      {
        "length": 32,
        "start": 1190
      }
    ],
    "5": [
      {
        "length": 32,
        "start": 999
      },
      {
        "length": 32,
        "start": 1296
      },
      {
        "length": 32,
        "start": 1455
      }
    ],
    "7": [
      {
        "length": 32,
        "start": 722
      },
      {
        "length": 32,
        "start": 900
      },
      {
        "length": 32,
        "start": 1356
      },
      {
        "length": 32,
        "start": 1917
      }
    ]
  },
  "source": "// SPDX-License-Identifier: MIT\npragma solidity ^0.8.0;\n\ncontract Crowdfunding {\n    address public immutable creator;\n    uint public immutable goal;\n    uint public immutable deadline;\n    uint public totalRaised;\n    mapping(address => uint) public contributions;\n\n    // Events\n    event Contributed(address indexed contributor, uint amount);\n    event Withdrawn(address indexed creator, uint amount);\n    event RefundIssued(address indexed contributor, uint amount);\n\n    constructor(uint _goal, uint _durationInDays) {\n        require(_goal > 0, \"Crowdfunding: Goal must be greater than 0\");\n        require(_durationInDays > 0, \"Crowdfunding: Duration must be greater than 0\");\n\n        creator = msg.sender;\n        goal = _goal;\n        deadline = block.timestamp + (_durationInDays * 1 days);\n    }\n\n    // Function to contribute ETH to the crowdfunding campaign\n    function contribute() external payable {\n        require(block.timestamp < deadline, \"Campaign ended\");\n        require(msg.value > 0, \"Contribution must be greater than 0\");\n\n        contributions[msg.sender] += msg.value;\n        totalRaised += msg.value;\n\n        emit Contributed(msg.sender, msg.value);\n    }\n\n    // Function to withdraw funds if the goal is met after the deadline\n    function withdraw() external {\n        require(msg.sender == creator, \"Only creator can withdraw\");\n        require(block.timestamp >= deadline, \"Campaign still active\");\n        require(totalRaised >= goal, \"Goal not met\");\n\n        uint amount = address(this).balance;\n        totalRaised = 0; // Reset totalRaised before transfer (prevent reentrancy)\n        \n        emit Withdrawn(msg.sender, amount);\n        payable(creator).transfer(amount);\n    }\n\n    // Function to allow refunds if the campaign fails\n    function refund() external {\n        require(block.timestamp >= deadline, \"Campaign still active\");\n        require(totalRaised < goal, \"Goal was met, no refunds\");\n\n        uint contribution = contributions[msg.sender];\n        require(contribution > 0, \"No contributions found\");\n\n        contributions[msg.sender] = 0;\n        emit RefundIssued(msg.sender, contribution);\n        payable(msg.sender).transfer(contribution);\n    }\n\n    // Function to check how much a contributor has contributed\n    function getContribution(address _contributor) external view returns (uint) {\n        return contributions[_contributor];\n    }\n\n    // Prevent accidental ETH transfers\n    receive() external payable {\n        revert(\"Direct ETH transfer not allowed\");\n    }\n\n    fallback() external payable {\n        revert(\"Invalid function call\");\n    }\n}\n",
  "sourcePath": "/Users/adminn/Documents/blockchain/smart_contracts_solidity/contracts/CrowdFunding.sol",
  "compiler": {
    "name": "solc",
    "version": "0.8.0+commit.c7dfd78e.Emscripten.clang"
  },
  "schemaVersion": "3.4.16",
  "updatedAt": "2025-02-24T15:50:57.297Z",
  "networkType": "ethereum",
  "devdoc": {
    "kind": "dev",
    "methods": {},
    "version": 1
  },
  "userdoc": {
    "kind": "user",
    "methods": {},
    "version": 1
  }
}