{
  "contractName": "SimpleUniswap",
  "abi": [
    {
      "inputs": [
        {
          "internalType": "address",
          "name": "_tokenA",
          "type": "address"
        },
        {
          "internalType": "address",
          "name": "_tokenB",
          "type": "address"
        }
      ],
      "stateMutability": "nonpayable",
      "type": "constructor"
    },
    {
      "inputs": [
        {
          "internalType": "address",
          "name": "token",
          "type": "address"
        }
      ],
      "name": "SafeERC20FailedOperation",
      "type": "error"
    },
    {
      "anonymous": false,
      "inputs": [
        {
          "indexed": true,
          "internalType": "address",
          "name": "provider",
          "type": "address"
        },
        {
          "indexed": false,
          "internalType": "uint256",
          "name": "amountA",
          "type": "uint256"
        },
        {
          "indexed": false,
          "internalType": "uint256",
          "name": "amountB",
          "type": "uint256"
        },
        {
          "indexed": false,
          "internalType": "uint256",
          "name": "liquidity",
          "type": "uint256"
        }
      ],
      "name": "LiquidityAdded",
      "type": "event"
    },
    {
      "anonymous": false,
      "inputs": [
        {
          "indexed": true,
          "internalType": "address",
          "name": "provider",
          "type": "address"
        },
        {
          "indexed": false,
          "internalType": "uint256",
          "name": "amountA",
          "type": "uint256"
        },
        {
          "indexed": false,
          "internalType": "uint256",
          "name": "amountB",
          "type": "uint256"
        },
        {
          "indexed": false,
          "internalType": "uint256",
          "name": "liquidity",
          "type": "uint256"
        }
      ],
      "name": "LiquidityRemoved",
      "type": "event"
    },
    {
      "anonymous": false,
      "inputs": [
        {
          "indexed": true,
          "internalType": "address",
          "name": "user",
          "type": "address"
        },
        {
          "indexed": false,
          "internalType": "address",
          "name": "inputToken",
          "type": "address"
        },
        {
          "indexed": false,
          "internalType": "uint256",
          "name": "inputAmount",
          "type": "uint256"
        },
        {
          "indexed": false,
          "internalType": "uint256",
          "name": "outputAmount",
          "type": "uint256"
        }
      ],
      "name": "Swap",
      "type": "event"
    },
    {
      "inputs": [
        {
          "internalType": "address",
          "name": "",
          "type": "address"
        }
      ],
      "name": "liquidityBalance",
      "outputs": [
        {
          "internalType": "uint256",
          "name": "",
          "type": "uint256"
        }
      ],
      "stateMutability": "view",
      "type": "function"
    },
    {
      "inputs": [],
      "name": "reserveA",
      "outputs": [
        {
          "internalType": "uint256",
          "name": "",
          "type": "uint256"
        }
      ],
      "stateMutability": "view",
      "type": "function"
    },
    {
      "inputs": [],
      "name": "reserveB",
      "outputs": [
        {
          "internalType": "uint256",
          "name": "",
          "type": "uint256"
        }
      ],
      "stateMutability": "view",
      "type": "function"
    },
    {
      "inputs": [],
      "name": "tokenA",
      "outputs": [
        {
          "internalType": "address",
          "name": "",
          "type": "address"
        }
      ],
      "stateMutability": "view",
      "type": "function"
    },
    {
      "inputs": [],
      "name": "tokenB",
      "outputs": [
        {
          "internalType": "address",
          "name": "",
          "type": "address"
        }
      ],
      "stateMutability": "view",
      "type": "function"
    },
    {
      "inputs": [],
      "name": "totalLiquidity",
      "outputs": [
        {
          "internalType": "uint256",
          "name": "",
          "type": "uint256"
        }
      ],
      "stateMutability": "view",
      "type": "function"
    },
    {
      "inputs": [
        {
          "internalType": "uint256",
          "name": "amountA",
          "type": "uint256"
        },
        {
          "internalType": "uint256",
          "name": "amountB",
          "type": "uint256"
        }
      ],
      "name": "addLiquidity",
      "outputs": [
        {
          "internalType": "uint256",
          "name": "liquidity",
          "type": "uint256"
        }
      ],
      "stateMutability": "nonpayable",
      "type": "function"
    },
    {
      "inputs": [
        {
          "internalType": "uint256",
          "name": "liquidity",
          "type": "uint256"
        }
      ],
      "name": "removeLiquidity",
      "outputs": [
        {
          "internalType": "uint256",
          "name": "amountA",
          "type": "uint256"
        },
        {
          "internalType": "uint256",
          "name": "amountB",
          "type": "uint256"
        }
      ],
      "stateMutability": "nonpayable",
      "type": "function"
    },
    {
      "inputs": [
        {
          "internalType": "uint256",
          "name": "amountIn",
          "type": "uint256"
        },
        {
          "internalType": "address",
          "name": "tokenIn",
          "type": "address"
        }
      ],
      "name": "swap",
      "outputs": [
        {
          "internalType": "uint256",
          "name": "amountOut",
          "type": "uint256"
        }
      ],
      "stateMutability": "nonpayable",
      "type": "function"
    },
    {
      "inputs": [],
      "name": "getReserves",
      "outputs": [
        {
          "internalType": "uint256",
          "name": "",
          "type": "uint256"
        },
        {
          "internalType": "uint256",
          "name": "",
          "type": "uint256"
        }
      ],
      "stateMutability": "view",
      "type": "function"
    }
  ],
  "bytecode": "0x608060405234801562000010575f80fd5b5060405162001678380380620016788339818101604052810190620000369190620001cd565b5f73ffffffffffffffffffffffffffffffffffffffff168273ffffffffffffffffffffffffffffffffffffffff16141580156200009f57505f73ffffffffffffffffffffffffffffffffffffffff168173ffffffffffffffffffffffffffffffffffffffff1614155b620000e1576040517f08c379a0000000000000000000000000000000000000000000000000000000008152600401620000d89062000270565b60405180910390fd5b815f806101000a81548173ffffffffffffffffffffffffffffffffffffffff021916908373ffffffffffffffffffffffffffffffffffffffff1602179055508060015f6101000a81548173ffffffffffffffffffffffffffffffffffffffff021916908373ffffffffffffffffffffffffffffffffffffffff160217905550505062000290565b5f80fd5b5f73ffffffffffffffffffffffffffffffffffffffff82169050919050565b5f62000197826200016c565b9050919050565b620001a9816200018b565b8114620001b4575f80fd5b50565b5f81519050620001c7816200019e565b92915050565b5f8060408385031215620001e657620001e562000168565b5b5f620001f585828601620001b7565b92505060206200020885828601620001b7565b9150509250929050565b5f82825260208201905092915050565b7f496e76616c696420746f6b656e206164647265737300000000000000000000005f82015250565b5f6200025860158362000212565b9150620002658262000222565b602082019050919050565b5f6020820190508181035f83015262000289816200024a565b9050919050565b6113da806200029e5f395ff3fe608060405234801561000f575f80fd5b506004361061009c575f3560e01c80639c8f9f23116100645780639c8f9f23146101375780639cd441da14610168578063d3986f0814610198578063dc5fa6c5146101c8578063dd296480146101e65761009c565b80630902f1ac146100a05780630fc63d10146100bf57806315770f92146100dd57806319e36f3b146100fb5780635f64b55b14610119575b5f80fd5b6100a8610216565b6040516100b6929190610d6b565b60405180910390f35b6100c7610226565b6040516100d49190610dd1565b60405180910390f35b6100e5610249565b6040516100f29190610dea565b60405180910390f35b61010361024f565b6040516101109190610dea565b60405180910390f35b610121610255565b60405161012e9190610dd1565b60405180910390f35b610151600480360381019061014c9190610e31565b61027a565b60405161015f929190610d6b565b60405180910390f35b610182600480360381019061017d9190610e5c565b6104c9565b60405161018f9190610dea565b60405180910390f35b6101b260048036038101906101ad9190610ec4565b61074b565b6040516101bf9190610dea565b60405180910390f35b6101d0610b18565b6040516101dd9190610dea565b60405180910390f35b61020060048036038101906101fb9190610f02565b610b1e565b60405161020d9190610dea565b60405180910390f35b5f80600254600354915091509091565b5f8054906101000a900473ffffffffffffffffffffffffffffffffffffffff1681565b60045481565b60035481565b60015f9054906101000a900473ffffffffffffffffffffffffffffffffffffffff1681565b5f805f831180156102c857508260055f3373ffffffffffffffffffffffffffffffffffffffff1673ffffffffffffffffffffffffffffffffffffffff1681526020019081526020015f205410155b610307576040517f08c379a00000000000000000000000000000000000000000000000000000000081526004016102fe90610f87565b60405180910390fd5b600454600254846103189190610fd2565b6103229190611040565b9150600454600354846103359190610fd2565b61033f9190611040565b90508260055f3373ffffffffffffffffffffffffffffffffffffffff1673ffffffffffffffffffffffffffffffffffffffff1681526020019081526020015f205f82825461038d9190611070565b925050819055508260045f8282546103a59190611070565b925050819055508160025f8282546103bd9190611070565b925050819055508060035f8282546103d59190611070565b9250508190555061042633835f8054906101000a900473ffffffffffffffffffffffffffffffffffffffff1673ffffffffffffffffffffffffffffffffffffffff16610b339092919063ffffffff16565b610472338260015f9054906101000a900473ffffffffffffffffffffffffffffffffffffffff1673ffffffffffffffffffffffffffffffffffffffff16610b339092919063ffffffff16565b3373ffffffffffffffffffffffffffffffffffffffff167f1dc8bb69df2b8e91fbdcbfcf93d951b3f0000f085a95fe3f7946d6161439245d8383866040516104bc939291906110a3565b60405180910390a2915091565b5f80831180156104d857505f82115b610517576040517f08c379a000000000000000000000000000000000000000000000000000000000815260040161050e90611122565b60405180910390fd5b6105633330855f8054906101000a900473ffffffffffffffffffffffffffffffffffffffff1673ffffffffffffffffffffffffffffffffffffffff16610bb2909392919063ffffffff16565b6105b133308460015f9054906101000a900473ffffffffffffffffffffffffffffffffffffffff1673ffffffffffffffffffffffffffffffffffffffff16610bb2909392919063ffffffff16565b5f600454036105d5576105ce82846105c99190610fd2565b610c34565b9050610616565b610613600254600454856105e99190610fd2565b6105f39190611040565b600354600454856106049190610fd2565b61060e9190611040565b610ca0565b90505b5f8111610658576040517f08c379a000000000000000000000000000000000000000000000000000000000815260040161064f9061118a565b60405180910390fd5b8260025f82825461066991906111a8565b925050819055508160035f82825461068191906111a8565b925050819055508060045f82825461069991906111a8565b925050819055508060055f3373ffffffffffffffffffffffffffffffffffffffff1673ffffffffffffffffffffffffffffffffffffffff1681526020019081526020015f205f8282546106ec91906111a8565b925050819055503373ffffffffffffffffffffffffffffffffffffffff167f64b83944e79c3ce8d4c297411de637c3e102d064677aac0c163976ebdcd6f50e84848460405161073d939291906110a3565b60405180910390a292915050565b5f80831161078e576040517f08c379a000000000000000000000000000000000000000000000000000000000815260040161078590611225565b60405180910390fd5b5f8054906101000a900473ffffffffffffffffffffffffffffffffffffffff1673ffffffffffffffffffffffffffffffffffffffff168273ffffffffffffffffffffffffffffffffffffffff161480610833575060015f9054906101000a900473ffffffffffffffffffffffffffffffffffffffff1673ffffffffffffffffffffffffffffffffffffffff168273ffffffffffffffffffffffffffffffffffffffff16145b610872576040517f08c379a00000000000000000000000000000000000000000000000000000000081526004016108699061128d565b60405180910390fd5b5f805f9054906101000a900473ffffffffffffffffffffffffffffffffffffffff1673ffffffffffffffffffffffffffffffffffffffff168373ffffffffffffffffffffffffffffffffffffffff161490505f80826108d6576003546002546108dd565b6002546003545b915091505f8361090c575f8054906101000a900473ffffffffffffffffffffffffffffffffffffffff1661092f565b60015f9054906101000a900473ffffffffffffffffffffffffffffffffffffffff165b90505f6103e86103e5896109439190610fd2565b61094d9190611040565b9050808461095b91906111a8565b81846109679190610fd2565b6109719190611040565b95505f86116109b5576040517f08c379a00000000000000000000000000000000000000000000000000000000081526004016109ac906112f5565b60405180910390fd5b8583116109f7576040517f08c379a00000000000000000000000000000000000000000000000000000000081526004016109ee90610f87565b60405180910390fd5b610a2433308a8a73ffffffffffffffffffffffffffffffffffffffff16610bb2909392919063ffffffff16565b610a4f33878473ffffffffffffffffffffffffffffffffffffffff16610b339092919063ffffffff16565b8415610a8a578760025f828254610a6691906111a8565b925050819055508560035f828254610a7e9190611070565b92505081905550610abb565b8560025f828254610a9b9190611070565b925050819055508760035f828254610ab391906111a8565b925050819055505b3373ffffffffffffffffffffffffffffffffffffffff167ffa2dda1cc1b86e41239702756b13effbc1a092b5c57e3ad320fbe4f3b13fe235888a89604051610b0593929190611313565b60405180910390a2505050505092915050565b60025481565b6005602052805f5260405f205f915090505481565b610bad838473ffffffffffffffffffffffffffffffffffffffff1663a9059cbb8585604051602401610b66929190611348565b604051602081830303815290604052915060e01b6020820180517bffffffffffffffffffffffffffffffffffffffffffffffffffffffff8381831617835250505050610cb8565b505050565b610c2e848573ffffffffffffffffffffffffffffffffffffffff166323b872dd868686604051602401610be79392919061136f565b604051602081830303815290604052915060e01b6020820180517bffffffffffffffffffffffffffffffffffffffffffffffffffffffff8381831617835250505050610cb8565b50505050565b5f808203610c44575f9050610c9b565b5f6002600184610c5491906111a8565b610c5e9190611040565b90508291505b81811015610c99578091506002818285610c7e9190611040565b610c8891906111a8565b610c929190611040565b9050610c64565b505b919050565b5f818310610cae5781610cb0565b825b905092915050565b5f8060205f8451602086015f885af180610cd7576040513d5f823e3d81fd5b3d92505f519150505f8214610cf0576001811415610d0b565b5f8473ffffffffffffffffffffffffffffffffffffffff163b145b15610d4d57836040517f5274afe7000000000000000000000000000000000000000000000000000000008152600401610d449190610dd1565b60405180910390fd5b50505050565b5f819050919050565b610d6581610d53565b82525050565b5f604082019050610d7e5f830185610d5c565b610d8b6020830184610d5c565b9392505050565b5f73ffffffffffffffffffffffffffffffffffffffff82169050919050565b5f610dbb82610d92565b9050919050565b610dcb81610db1565b82525050565b5f602082019050610de45f830184610dc2565b92915050565b5f602082019050610dfd5f830184610d5c565b92915050565b5f80fd5b610e1081610d53565b8114610e1a575f80fd5b50565b5f81359050610e2b81610e07565b92915050565b5f60208284031215610e4657610e45610e03565b5b5f610e5384828501610e1d565b91505092915050565b5f8060408385031215610e7257610e71610e03565b5b5f610e7f85828601610e1d565b9250506020610e9085828601610e1d565b9150509250929050565b610ea381610db1565b8114610ead575f80fd5b50565b5f81359050610ebe81610e9a565b92915050565b5f8060408385031215610eda57610ed9610e03565b5b5f610ee785828601610e1d565b9250506020610ef885828601610eb0565b9150509250929050565b5f60208284031215610f1757610f16610e03565b5b5f610f2484828501610eb0565b91505092915050565b5f82825260208201905092915050565b7f496e73756666696369656e74206c6971756964697479000000000000000000005f82015250565b5f610f71601683610f2d565b9150610f7c82610f3d565b602082019050919050565b5f6020820190508181035f830152610f9e81610f65565b9050919050565b7f4e487b71000000000000000000000000000000000000000000000000000000005f52601160045260245ffd5b5f610fdc82610d53565b9150610fe783610d53565b9250828202610ff581610d53565b9150828204841483151761100c5761100b610fa5565b5b5092915050565b7f4e487b71000000000000000000000000000000000000000000000000000000005f52601260045260245ffd5b5f61104a82610d53565b915061105583610d53565b92508261106557611064611013565b5b828204905092915050565b5f61107a82610d53565b915061108583610d53565b925082820390508181111561109d5761109c610fa5565b5b92915050565b5f6060820190506110b65f830186610d5c565b6110c36020830185610d5c565b6110d06040830184610d5c565b949350505050565b7f416d6f756e7473206d7573742062652067726561746572207468616e203000005f82015250565b5f61110c601e83610f2d565b9150611117826110d8565b602082019050919050565b5f6020820190508181035f83015261113981611100565b9050919050565b7f496e73756666696369656e74206c6971756964697479206d696e7465640000005f82015250565b5f611174601d83610f2d565b915061117f82611140565b602082019050919050565b5f6020820190508181035f8301526111a181611168565b9050919050565b5f6111b282610d53565b91506111bd83610d53565b92508282019050808211156111d5576111d4610fa5565b5b92915050565b7f416d6f756e74206d7573742062652067726561746572207468616e20300000005f82015250565b5f61120f601d83610f2d565b915061121a826111db565b602082019050919050565b5f6020820190508181035f83015261123c81611203565b9050919050565b7f496e76616c696420746f6b656e000000000000000000000000000000000000005f82015250565b5f611277600d83610f2d565b915061128282611243565b602082019050919050565b5f6020820190508181035f8301526112a48161126b565b9050919050565b7f496e73756666696369656e74206f757470757420616d6f756e740000000000005f82015250565b5f6112df601a83610f2d565b91506112ea826112ab565b602082019050919050565b5f6020820190508181035f83015261130c816112d3565b9050919050565b5f6060820190506113265f830186610dc2565b6113336020830185610d5c565b6113406040830184610d5c565b949350505050565b5f60408201905061135b5f830185610dc2565b6113686020830184610d5c565b9392505050565b5f6060820190506113825f830186610dc2565b61138f6020830185610dc2565b61139c6040830184610d5c565b94935050505056fea2646970667358221220a0f4152f056260ca0763ba209a602f00ace9da2b89dd00e81c46f27597c2406364736f6c63430008150033",
  "immutableReferences": {},
  "source": "// SPDX-License-Identifier: MIT\npragma solidity ^0.8.0;\n\nimport \"@openzeppelin/contracts/token/ERC20/utils/SafeERC20.sol\";\nimport \"@openzeppelin/contracts/token/ERC20/IERC20.sol\";\n\ncontract SimpleUniswap {\n    using SafeERC20 for IERC20;\n\n    address public tokenA;\n    address public tokenB;\n\n    uint256 public reserveA;\n    uint256 public reserveB;\n    uint256 public totalLiquidity;\n    mapping(address => uint256) public liquidityBalance;\n\n    event Swap(address indexed user, address inputToken, uint256 inputAmount, uint256 outputAmount);\n    event LiquidityAdded(address indexed provider, uint256 amountA, uint256 amountB, uint256 liquidity);\n    event LiquidityRemoved(address indexed provider, uint256 amountA, uint256 amountB, uint256 liquidity);\n\n    constructor(address _tokenA, address _tokenB) {\n        require(_tokenA != address(0) && _tokenB != address(0), \"Invalid token address\");\n        tokenA = _tokenA;\n        tokenB = _tokenB;\n    }\n\n    function addLiquidity(uint256 amountA, uint256 amountB) external returns (uint256 liquidity) {\n        require(amountA > 0 && amountB > 0, \"Amounts must be greater than 0\");\n\n        IERC20(tokenA).safeTransferFrom(msg.sender, address(this), amountA);\n        IERC20(tokenB).safeTransferFrom(msg.sender, address(this), amountB);\n\n        if (totalLiquidity == 0) {\n            liquidity = sqrt(amountA * amountB);\n        } else {\n            liquidity = min((amountA * totalLiquidity) / reserveA, (amountB * totalLiquidity) / reserveB);\n        }\n\n        require(liquidity > 0, \"Insufficient liquidity minted\");\n\n        reserveA += amountA;\n        reserveB += amountB;\n        totalLiquidity += liquidity;\n        liquidityBalance[msg.sender] += liquidity;\n\n        emit LiquidityAdded(msg.sender, amountA, amountB, liquidity);\n        return liquidity;\n    }\n\n    function removeLiquidity(uint256 liquidity) external returns (uint256 amountA, uint256 amountB) {\n        require(liquidity > 0 && liquidityBalance[msg.sender] >= liquidity, \"Insufficient liquidity\");\n\n        amountA = (liquidity * reserveA) / totalLiquidity;\n        amountB = (liquidity * reserveB) / totalLiquidity;\n\n        liquidityBalance[msg.sender] -= liquidity;\n        totalLiquidity -= liquidity;\n        reserveA -= amountA;\n        reserveB -= amountB;\n\n        IERC20(tokenA).safeTransfer(msg.sender, amountA);\n        IERC20(tokenB).safeTransfer(msg.sender, amountB);\n\n        emit LiquidityRemoved(msg.sender, amountA, amountB, liquidity);\n        return (amountA, amountB);\n    }\n\n    function swap(uint256 amountIn, address tokenIn) external returns (uint256 amountOut) {\n        require(amountIn > 0, \"Amount must be greater than 0\");\n        require(tokenIn == tokenA || tokenIn == tokenB, \"Invalid token\");\n\n        bool isTokenA = tokenIn == tokenA;\n        (uint256 reserveIn, uint256 reserveOut) = isTokenA ? (reserveA, reserveB) : (reserveB, reserveA);\n        address tokenOut = isTokenA ? tokenB : tokenA;\n\n        uint256 amountInWithFee = (amountIn * 997) / 1000;\n        amountOut = (reserveOut * amountInWithFee) / (reserveIn + amountInWithFee);\n\n        require(amountOut > 0, \"Insufficient output amount\");\n        require(reserveOut > amountOut, \"Insufficient liquidity\");\n\n        IERC20(tokenIn).safeTransferFrom(msg.sender, address(this), amountIn);\n        IERC20(tokenOut).safeTransfer(msg.sender, amountOut);\n\n        if (isTokenA) {\n            reserveA += amountIn;\n            reserveB -= amountOut;\n        } else {\n            reserveA -= amountOut;\n            reserveB += amountIn;\n        }\n\n        emit Swap(msg.sender, tokenIn, amountIn, amountOut);\n        return amountOut;\n    }\n\n    function min(uint256 a, uint256 b) private pure returns (uint256) {\n        return a < b ? a : b;\n    }\n\n    function sqrt(uint256 x) private pure returns (uint256 y) {\n        if (x == 0) return 0;\n        uint256 z = (x + 1) / 2;\n        y = x;\n        while (z < y) {\n            y = z;\n            z = (x / z + z) / 2;\n        }\n    }\n\n    function getReserves() external view returns (uint256, uint256) {\n        return (reserveA, reserveB);\n    }\n}\n",
  "sourcePath": "/Users/adminn/Documents/blockchain/smart_contracts_solidity/contracts/SimpleUniswap.sol",
  "compiler": {
    "name": "solc",
    "version": "0.8.21+commit.d9974bed.Emscripten.clang"
  },
  "schemaVersion": "3.4.16",
  "updatedAt": "2025-02-24T14:49:50.164Z",
  "devdoc": {
    "errors": {
      "SafeERC20FailedOperation(address)": [
        {
          "details": "An operation with an ERC-20 token failed."
        }
      ]
    },
    "kind": "dev",
    "methods": {},
    "version": 1
  },
  "userdoc": {
    "kind": "user",
    "methods": {},
    "version": 1
  }
}