{
  "contractName": "SimpleDEX",
  "abi": [
    {
      "inputs": [
        {
          "internalType": "address",
          "name": "_tokenA",
          "type": "address"
        },
        {
          "internalType": "address",
          "name": "_tokenB",
          "type": "address"
        }
      ],
      "stateMutability": "nonpayable",
      "type": "constructor"
    },
    {
      "inputs": [
        {
          "internalType": "address",
          "name": "token",
          "type": "address"
        }
      ],
      "name": "SafeERC20FailedOperation",
      "type": "error"
    },
    {
      "inputs": [],
      "name": "reserveA",
      "outputs": [
        {
          "internalType": "uint256",
          "name": "",
          "type": "uint256"
        }
      ],
      "stateMutability": "view",
      "type": "function"
    },
    {
      "inputs": [],
      "name": "reserveB",
      "outputs": [
        {
          "internalType": "uint256",
          "name": "",
          "type": "uint256"
        }
      ],
      "stateMutability": "view",
      "type": "function"
    },
    {
      "inputs": [],
      "name": "tokenA",
      "outputs": [
        {
          "internalType": "address",
          "name": "",
          "type": "address"
        }
      ],
      "stateMutability": "view",
      "type": "function"
    },
    {
      "inputs": [],
      "name": "tokenB",
      "outputs": [
        {
          "internalType": "address",
          "name": "",
          "type": "address"
        }
      ],
      "stateMutability": "view",
      "type": "function"
    },
    {
      "inputs": [
        {
          "internalType": "uint256",
          "name": "amountA",
          "type": "uint256"
        },
        {
          "internalType": "uint256",
          "name": "amountB",
          "type": "uint256"
        }
      ],
      "name": "addLiquidity",
      "outputs": [],
      "stateMutability": "nonpayable",
      "type": "function"
    },
    {
      "inputs": [
        {
          "internalType": "uint256",
          "name": "amountIn",
          "type": "uint256"
        }
      ],
      "name": "swapAtoB",
      "outputs": [],
      "stateMutability": "nonpayable",
      "type": "function"
    }
  ],
  "bytecode": "0x608060405234801562000010575f80fd5b5060405162000bac38038062000bac8339818101604052810190620000369190620001cd565b5f73ffffffffffffffffffffffffffffffffffffffff168273ffffffffffffffffffffffffffffffffffffffff16141580156200009f57505f73ffffffffffffffffffffffffffffffffffffffff168173ffffffffffffffffffffffffffffffffffffffff1614155b620000e1576040517f08c379a0000000000000000000000000000000000000000000000000000000008152600401620000d89062000270565b60405180910390fd5b815f806101000a81548173ffffffffffffffffffffffffffffffffffffffff021916908373ffffffffffffffffffffffffffffffffffffffff1602179055508060015f6101000a81548173ffffffffffffffffffffffffffffffffffffffff021916908373ffffffffffffffffffffffffffffffffffffffff160217905550505062000290565b5f80fd5b5f73ffffffffffffffffffffffffffffffffffffffff82169050919050565b5f62000197826200016c565b9050919050565b620001a9816200018b565b8114620001b4575f80fd5b50565b5f81519050620001c7816200019e565b92915050565b5f8060408385031215620001e657620001e562000168565b5b5f620001f585828601620001b7565b92505060206200020885828601620001b7565b9150509250929050565b5f82825260208201905092915050565b7f496e76616c696420746f6b656e206164647265737300000000000000000000005f82015250565b5f6200025860158362000212565b9150620002658262000222565b602082019050919050565b5f6020820190508181035f83015262000289816200024a565b9050919050565b61090e806200029e5f395ff3fe608060405234801561000f575f80fd5b5060043610610060575f3560e01c80630fc63d101461006457806319e36f3b146100825780635f64b55b146100a05780639cd441da146100be578063da0d6735146100da578063dc5fa6c5146100f6575b5f80fd5b61006c610114565b604051610079919061058a565b60405180910390f35b61008a610137565b60405161009791906105bb565b60405180910390f35b6100a861013d565b6040516100b5919061058a565b60405180910390f35b6100d860048036038101906100d39190610602565b610162565b005b6100f460048036038101906100ef9190610640565b610230565b005b6100fe6103a9565b60405161010b91906105bb565b60405180910390f35b5f8054906101000a900473ffffffffffffffffffffffffffffffffffffffff1681565b60035481565b60015f9054906101000a900473ffffffffffffffffffffffffffffffffffffffff1681565b6101ae3330845f8054906101000a900473ffffffffffffffffffffffffffffffffffffffff1673ffffffffffffffffffffffffffffffffffffffff166103af909392919063ffffffff16565b6101fc33308360015f9054906101000a900473ffffffffffffffffffffffffffffffffffffffff1673ffffffffffffffffffffffffffffffffffffffff166103af909392919063ffffffff16565b8160025f82825461020d9190610698565b925050819055508060035f8282546102259190610698565b925050819055505050565b5f8111610272576040517f08c379a000000000000000000000000000000000000000000000000000000000815260040161026990610725565b60405180910390fd5b5f816002546102819190610698565b8260035461028f9190610743565b61029991906107b1565b90505f81116102dd576040517f08c379a00000000000000000000000000000000000000000000000000000000081526004016102d49061082b565b60405180910390fd5b6103293330845f8054906101000a900473ffffffffffffffffffffffffffffffffffffffff1673ffffffffffffffffffffffffffffffffffffffff166103af909392919063ffffffff16565b610375338260015f9054906101000a900473ffffffffffffffffffffffffffffffffffffffff1673ffffffffffffffffffffffffffffffffffffffff166104319092919063ffffffff16565b8160025f8282546103869190610698565b925050819055508060035f82825461039e9190610849565b925050819055505050565b60025481565b61042b848573ffffffffffffffffffffffffffffffffffffffff166323b872dd8686866040516024016103e49392919061087c565b604051602081830303815290604052915060e01b6020820180517bffffffffffffffffffffffffffffffffffffffffffffffffffffffff83818316178352505050506104b0565b50505050565b6104ab838473ffffffffffffffffffffffffffffffffffffffff1663a9059cbb85856040516024016104649291906108b1565b604051602081830303815290604052915060e01b6020820180517bffffffffffffffffffffffffffffffffffffffffffffffffffffffff83818316178352505050506104b0565b505050565b5f8060205f8451602086015f885af1806104cf576040513d5f823e3d81fd5b3d92505f519150505f82146104e8576001811415610503565b5f8473ffffffffffffffffffffffffffffffffffffffff163b145b1561054557836040517f5274afe700000000000000000000000000000000000000000000000000000000815260040161053c919061058a565b60405180910390fd5b50505050565b5f73ffffffffffffffffffffffffffffffffffffffff82169050919050565b5f6105748261054b565b9050919050565b6105848161056a565b82525050565b5f60208201905061059d5f83018461057b565b92915050565b5f819050919050565b6105b5816105a3565b82525050565b5f6020820190506105ce5f8301846105ac565b92915050565b5f80fd5b6105e1816105a3565b81146105eb575f80fd5b50565b5f813590506105fc816105d8565b92915050565b5f8060408385031215610618576106176105d4565b5b5f610625858286016105ee565b9250506020610636858286016105ee565b9150509250929050565b5f60208284031215610655576106546105d4565b5b5f610662848285016105ee565b91505092915050565b7f4e487b71000000000000000000000000000000000000000000000000000000005f52601160045260245ffd5b5f6106a2826105a3565b91506106ad836105a3565b92508282019050808211156106c5576106c461066b565b5b92915050565b5f82825260208201905092915050565b7f416d6f756e74206d7573742062652067726561746572207468616e207a65726f5f82015250565b5f61070f6020836106cb565b915061071a826106db565b602082019050919050565b5f6020820190508181035f83015261073c81610703565b9050919050565b5f61074d826105a3565b9150610758836105a3565b9250828202610766816105a3565b9150828204841483151761077d5761077c61066b565b5b5092915050565b7f4e487b71000000000000000000000000000000000000000000000000000000005f52601260045260245ffd5b5f6107bb826105a3565b91506107c6836105a3565b9250826107d6576107d5610784565b5b828204905092915050565b7f496e73756666696369656e74206c6971756964697479000000000000000000005f82015250565b5f6108156016836106cb565b9150610820826107e1565b602082019050919050565b5f6020820190508181035f83015261084281610809565b9050919050565b5f610853826105a3565b915061085e836105a3565b92508282039050818111156108765761087561066b565b5b92915050565b5f60608201905061088f5f83018661057b565b61089c602083018561057b565b6108a960408301846105ac565b949350505050565b5f6040820190506108c45f83018561057b565b6108d160208301846105ac565b939250505056fea26469706673582212202ac708a353040581c727d4df66bf9872343739a6d0565f48d3b39cea0f53644064736f6c63430008150033",
  "immutableReferences": {},
  "source": "// SPDX-License-Identifier: MIT\npragma solidity ^0.8.0;\n\nimport \"../node_modules/@openzeppelin/contracts/token/ERC20/utils/SafeERC20.sol\";\nimport \"../node_modules/@openzeppelin/contracts/token/ERC20/IERC20.sol\";\n\ncontract SimpleDEX {\n    using SafeERC20 for IERC20;\n\n    address public tokenA;\n    address public tokenB;\n    uint256 public reserveA;\n    uint256 public reserveB;\n\n    constructor(address _tokenA, address _tokenB) {\n        require(_tokenA != address(0) && _tokenB != address(0), \"Invalid token address\");\n        tokenA = _tokenA;\n        tokenB = _tokenB;\n    }\n\n    function addLiquidity(uint256 amountA, uint256 amountB) external {\n        IERC20(tokenA).safeTransferFrom(msg.sender, address(this), amountA);\n        IERC20(tokenB).safeTransferFrom(msg.sender, address(this), amountB);\n        reserveA += amountA;\n        reserveB += amountB;\n    }\n\n    function swapAtoB(uint256 amountIn) external {\n        require(amountIn > 0, \"Amount must be greater than zero\");\n        uint256 amountOut = (reserveB * amountIn) / (reserveA + amountIn);\n        require(amountOut > 0, \"Insufficient liquidity\");\n\n        IERC20(tokenA).safeTransferFrom(msg.sender, address(this), amountIn);\n        IERC20(tokenB).safeTransfer(msg.sender, amountOut);\n\n        reserveA += amountIn;\n        reserveB -= amountOut;\n    }\n}\n",
  "sourcePath": "/Users/adminn/Documents/blockchain/smart_contracts_solidity/contracts/SimpleDEX.sol",
  "compiler": {
    "name": "solc",
    "version": "0.8.21+commit.d9974bed.Emscripten.clang"
  },
  "schemaVersion": "3.4.16",
  "updatedAt": "2025-02-24T14:49:50.161Z",
  "devdoc": {
    "errors": {
      "SafeERC20FailedOperation(address)": [
        {
          "details": "An operation with an ERC-20 token failed."
        }
      ]
    },
    "kind": "dev",
    "methods": {},
    "version": 1
  },
  "userdoc": {
    "kind": "user",
    "methods": {},
    "version": 1
  }
}