{
  "contractName": "SupplyChain",
  "abi": [
    {
      "inputs": [],
      "stateMutability": "nonpayable",
      "type": "constructor"
    },
    {
      "anonymous": false,
      "inputs": [
        {
          "indexed": true,
          "internalType": "uint256",
          "name": "productId",
          "type": "uint256"
        },
        {
          "indexed": false,
          "internalType": "address",
          "name": "from",
          "type": "address"
        },
        {
          "indexed": false,
          "internalType": "address",
          "name": "to",
          "type": "address"
        }
      ],
      "name": "OwnershipTransferred",
      "type": "event"
    },
    {
      "anonymous": false,
      "inputs": [
        {
          "indexed": true,
          "internalType": "uint256",
          "name": "productId",
          "type": "uint256"
        },
        {
          "indexed": false,
          "internalType": "enum SupplyChain.Stage",
          "name": "stage",
          "type": "uint8"
        },
        {
          "indexed": false,
          "internalType": "address",
          "name": "by",
          "type": "address"
        },
        {
          "indexed": false,
          "internalType": "uint256",
          "name": "timestamp",
          "type": "uint256"
        }
      ],
      "name": "StageUpdated",
      "type": "event"
    },
    {
      "inputs": [],
      "name": "productCount",
      "outputs": [
        {
          "internalType": "uint256",
          "name": "",
          "type": "uint256"
        }
      ],
      "stateMutability": "view",
      "type": "function",
      "constant": true
    },
    {
      "inputs": [
        {
          "internalType": "uint256",
          "name": "",
          "type": "uint256"
        }
      ],
      "name": "products",
      "outputs": [
        {
          "internalType": "uint256",
          "name": "id",
          "type": "uint256"
        },
        {
          "internalType": "string",
          "name": "name",
          "type": "string"
        },
        {
          "internalType": "enum SupplyChain.Stage",
          "name": "currentStage",
          "type": "uint8"
        },
        {
          "internalType": "address",
          "name": "currentOwner",
          "type": "address"
        },
        {
          "internalType": "uint256",
          "name": "timestamp",
          "type": "uint256"
        }
      ],
      "stateMutability": "view",
      "type": "function",
      "constant": true
    },
    {
      "inputs": [
        {
          "internalType": "string",
          "name": "_name",
          "type": "string"
        }
      ],
      "name": "createProduct",
      "outputs": [
        {
          "internalType": "uint256",
          "name": "",
          "type": "uint256"
        }
      ],
      "stateMutability": "nonpayable",
      "type": "function"
    },
    {
      "inputs": [
        {
          "internalType": "uint256",
          "name": "_productId",
          "type": "uint256"
        },
        {
          "internalType": "address",
          "name": "_party",
          "type": "address"
        }
      ],
      "name": "addAuthorizedParty",
      "outputs": [],
      "stateMutability": "nonpayable",
      "type": "function"
    },
    {
      "inputs": [
        {
          "internalType": "uint256",
          "name": "_productId",
          "type": "uint256"
        },
        {
          "internalType": "enum SupplyChain.Stage",
          "name": "_newStage",
          "type": "uint8"
        }
      ],
      "name": "updateStage",
      "outputs": [],
      "stateMutability": "nonpayable",
      "type": "function"
    },
    {
      "inputs": [
        {
          "internalType": "uint256",
          "name": "_productId",
          "type": "uint256"
        },
        {
          "internalType": "address",
          "name": "_newOwner",
          "type": "address"
        }
      ],
      "name": "transferOwnership",
      "outputs": [],
      "stateMutability": "nonpayable",
      "type": "function"
    },
    {
      "inputs": [
        {
          "internalType": "uint256",
          "name": "_productId",
          "type": "uint256"
        }
      ],
      "name": "getProductDetails",
      "outputs": [
        {
          "internalType": "uint256",
          "name": "id",
          "type": "uint256"
        },
        {
          "internalType": "string",
          "name": "name",
          "type": "string"
        },
        {
          "internalType": "enum SupplyChain.Stage",
          "name": "currentStage",
          "type": "uint8"
        },
        {
          "internalType": "address",
          "name": "currentOwner",
          "type": "address"
        },
        {
          "internalType": "uint256",
          "name": "timestamp",
          "type": "uint256"
        }
      ],
      "stateMutability": "view",
      "type": "function",
      "constant": true
    }
  ],
  "bytecode": "0x608060405234801561001057600080fd5b506000600181905550611462806100286000396000f3fe608060405234801561001057600080fd5b506004361061007d5760003560e01c80636813b53b1161005b5780636813b53b146100ea5780637acc0b201461011e578063e0f6ef8714610152578063f405c96b146101705761007d565b806302ec06be1461008257806329507f73146100b25780635e39339c146100ce575b600080fd5b61009c60048036038101906100979190610d15565b61018c565b6040516100a991906110fd565b60405180910390f35b6100cc60048036038101906100c79190610d7f565b610325565b005b6100e860048036038101906100e39190610d7f565b6105f0565b005b61010460048036038101906100ff9190610d56565b610702565b604051610115959493929190611118565b60405180910390f35b61013860048036038101906101339190610d56565b610857565b604051610149959493929190611118565b60405180910390f35b61015a610942565b60405161016791906110fd565b60405180910390f35b61018a60048036038101906101859190610dbb565b610948565b005b6000600160008154809291906101a1906112c4565b91905055506000806000600154815260200190815260200160002090506001548160000181905550828160010190805190602001906101e1929190610bcb565b5060008160020160006101000a81548160ff02191690836004811115610230577f4e487b7100000000000000000000000000000000000000000000000000000000600052602160045260246000fd5b0217905550338160020160016101000a81548173ffffffffffffffffffffffffffffffffffffffff021916908373ffffffffffffffffffffffffffffffffffffffff16021790555042816003018190555060018160040160003373ffffffffffffffffffffffffffffffffffffffff1673ffffffffffffffffffffffffffffffffffffffff16815260200190815260200160002060006101000a81548160ff0219169083151502179055506001547fd35079bd9f0d87556b38c1165117ccd975a6b3c2dd3c85342d8c02343bde1d9f6000334260405161031293929190611006565b60405180910390a2600154915050919050565b8160008082815260200190815260200160002060040160003373ffffffffffffffffffffffffffffffffffffffff1673ffffffffffffffffffffffffffffffffffffffff16815260200190815260200160002060009054906101000a900460ff166103c5576040517f08c379a00000000000000000000000000000000000000000000000000000000081526004016103bc906110dd565b60405180910390fd5b3373ffffffffffffffffffffffffffffffffffffffff1660008085815260200190815260200160002060020160019054906101000a900473ffffffffffffffffffffffffffffffffffffffff1673ffffffffffffffffffffffffffffffffffffffff1614610468576040517f08c379a000000000000000000000000000000000000000000000000000000000815260040161045f9061103d565b60405180910390fd5b600073ffffffffffffffffffffffffffffffffffffffff168273ffffffffffffffffffffffffffffffffffffffff1614156104d8576040517f08c379a00000000000000000000000000000000000000000000000000000000081526004016104cf906110bd565b60405180910390fd5b8160008085815260200190815260200160002060020160016101000a81548173ffffffffffffffffffffffffffffffffffffffff021916908373ffffffffffffffffffffffffffffffffffffffff160217905550600160008085815260200190815260200160002060040160008473ffffffffffffffffffffffffffffffffffffffff1673ffffffffffffffffffffffffffffffffffffffff16815260200190815260200160002060006101000a81548160ff0219169083151502179055504260008085815260200190815260200160002060030181905550827f16b85f49bf01212961345d3016c9a531894accf62eb7680f2045d79185cc0ec033846040516105e3929190610fdd565b60405180910390a2505050565b3373ffffffffffffffffffffffffffffffffffffffff1660008084815260200190815260200160002060020160019054906101000a900473ffffffffffffffffffffffffffffffffffffffff1673ffffffffffffffffffffffffffffffffffffffff1614610693576040517f08c379a000000000000000000000000000000000000000000000000000000000815260040161068a9061109d565b60405180910390fd5b600160008084815260200190815260200160002060040160008373ffffffffffffffffffffffffffffffffffffffff1673ffffffffffffffffffffffffffffffffffffffff16815260200190815260200160002060006101000a81548160ff0219169083151502179055505050565b600060606000806000600154861115801561071d5750600086115b61075c576040517f08c379a00000000000000000000000000000000000000000000000000000000081526004016107539061105d565b60405180910390fd5b600080600088815260200190815260200160002090508060000154816001018260020160009054906101000a900460ff168360020160019054906101000a900473ffffffffffffffffffffffffffffffffffffffff1684600301548380546107c390611292565b80601f01602080910402602001604051908101604052809291908181526020018280546107ef90611292565b801561083c5780601f106108115761010080835404028352916020019161083c565b820191906000526020600020905b81548152906001019060200180831161081f57829003601f168201915b50505050509350955095509550955095505091939590929450565b600060205280600052604060002060009150905080600001549080600101805461088090611292565b80601f01602080910402602001604051908101604052809291908181526020018280546108ac90611292565b80156108f95780601f106108ce576101008083540402835291602001916108f9565b820191906000526020600020905b8154815290600101906020018083116108dc57829003601f168201915b5050505050908060020160009054906101000a900460ff16908060020160019054906101000a900473ffffffffffffffffffffffffffffffffffffffff16908060030154905085565b60015481565b8160008082815260200190815260200160002060040160003373ffffffffffffffffffffffffffffffffffffffff1673ffffffffffffffffffffffffffffffffffffffff16815260200190815260200160002060009054906101000a900460ff166109e8576040517f08c379a00000000000000000000000000000000000000000000000000000000081526004016109df906110dd565b60405180910390fd5b60015483111580156109fa5750600083115b610a39576040517f08c379a0000000000000000000000000000000000000000000000000000000008152600401610a309061105d565b60405180910390fd5b60008084815260200190815260200160002060020160009054906101000a900460ff166004811115610a94577f4e487b7100000000000000000000000000000000000000000000000000000000600052602160045260246000fd5b826004811115610acd577f4e487b7100000000000000000000000000000000000000000000000000000000600052602160045260246000fd5b11610b0d576040517f08c379a0000000000000000000000000000000000000000000000000000000008152600401610b049061107d565b60405180910390fd5b8160008085815260200190815260200160002060020160006101000a81548160ff02191690836004811115610b6b577f4e487b7100000000000000000000000000000000000000000000000000000000600052602160045260246000fd5b02179055504260008085815260200190815260200160002060030181905550827fd35079bd9f0d87556b38c1165117ccd975a6b3c2dd3c85342d8c02343bde1d9f833342604051610bbe93929190611006565b60405180910390a2505050565b828054610bd790611292565b90600052602060002090601f016020900481019282610bf95760008555610c40565b82601f10610c1257805160ff1916838001178555610c40565b82800160010185558215610c40579182015b82811115610c3f578251825591602001919060010190610c24565b5b509050610c4d9190610c51565b5090565b5b80821115610c6a576000816000905550600101610c52565b5090565b6000610c81610c7c846111a3565b611172565b905082815260208101848484011115610c9957600080fd5b610ca4848285611250565b509392505050565b600081359050610cbb816113ee565b92915050565b600081359050610cd081611405565b92915050565b600082601f830112610ce757600080fd5b8135610cf7848260208601610c6e565b91505092915050565b600081359050610d0f81611415565b92915050565b600060208284031215610d2757600080fd5b600082013567ffffffffffffffff811115610d4157600080fd5b610d4d84828501610cd6565b91505092915050565b600060208284031215610d6857600080fd5b6000610d7684828501610d00565b91505092915050565b60008060408385031215610d9257600080fd5b6000610da085828601610d00565b9250506020610db185828601610cac565b9150509250929050565b60008060408385031215610dce57600080fd5b6000610ddc85828601610d00565b9250506020610ded85828601610cc1565b9150509250929050565b610e00816111ef565b82525050565b610e0f8161123e565b82525050565b6000610e20826111d3565b610e2a81856111de565b9350610e3a81856020860161125f565b610e43816113c9565b840191505092915050565b6000610e5b601f836111de565b91507f4f6e6c792063757272656e74206f776e65722063616e207472616e73666572006000830152602082019050919050565b6000610e9b6012836111de565b91507f496e76616c69642070726f6475637420494400000000000000000000000000006000830152602082019050919050565b6000610edb6015836111de565b91507f43616e206f6e6c79206d6f766520666f727761726400000000000000000000006000830152602082019050919050565b6000610f1b6018836111de565b91507f4f6e6c79206f776e65722063616e20617574686f72697a6500000000000000006000830152602082019050919050565b6000610f5b6019836111de565b91507f496e76616c6964206e6577206f776e65722061646472657373000000000000006000830152602082019050919050565b6000610f9b600e836111de565b91507f4e6f7420617574686f72697a65640000000000000000000000000000000000006000830152602082019050919050565b610fd781611234565b82525050565b6000604082019050610ff26000830185610df7565b610fff6020830184610df7565b9392505050565b600060608201905061101b6000830186610e06565b6110286020830185610df7565b6110356040830184610fce565b949350505050565b6000602082019050818103600083015261105681610e4e565b9050919050565b6000602082019050818103600083015261107681610e8e565b9050919050565b6000602082019050818103600083015261109681610ece565b9050919050565b600060208201905081810360008301526110b681610f0e565b9050919050565b600060208201905081810360008301526110d681610f4e565b9050919050565b600060208201905081810360008301526110f681610f8e565b9050919050565b60006020820190506111126000830184610fce565b92915050565b600060a08201905061112d6000830188610fce565b818103602083015261113f8187610e15565b905061114e6040830186610e06565b61115b6060830185610df7565b6111686080830184610fce565b9695505050505050565b6000604051905081810181811067ffffffffffffffff821117156111995761119861139a565b5b8060405250919050565b600067ffffffffffffffff8211156111be576111bd61139a565b5b601f19601f8301169050602081019050919050565b600081519050919050565b600082825260208201905092915050565b60006111fa82611214565b9050919050565b600081905061120f826113da565b919050565b600073ffffffffffffffffffffffffffffffffffffffff82169050919050565b6000819050919050565b600061124982611201565b9050919050565b82818337600083830152505050565b60005b8381101561127d578082015181840152602081019050611262565b8381111561128c576000848401525b50505050565b600060028204905060018216806112aa57607f821691505b602082108114156112be576112bd61136b565b5b50919050565b60006112cf82611234565b91507fffffffffffffffffffffffffffffffffffffffffffffffffffffffffffffffff8214156113025761130161130d565b5b600182019050919050565b7f4e487b7100000000000000000000000000000000000000000000000000000000600052601160045260246000fd5b7f4e487b7100000000000000000000000000000000000000000000000000000000600052602160045260246000fd5b7f4e487b7100000000000000000000000000000000000000000000000000000000600052602260045260246000fd5b7f4e487b7100000000000000000000000000000000000000000000000000000000600052604160045260246000fd5b6000601f19601f8301169050919050565b600581106113eb576113ea61133c565b5b50565b6113f7816111ef565b811461140257600080fd5b50565b6005811061141257600080fd5b50565b61141e81611234565b811461142957600080fd5b5056fea2646970667358221220d7c0539defab0bb28862705a731f3423492e516e4774996c7b73c75cacbaadc664736f6c63430008000033",
  "immutableReferences": {},
  "source": "// SPDX-License-Identifier: MIT\npragma solidity ^0.8.0;\n\ncontract SupplyChain {\n    // Enum to represent different stages in the supply chain\n    enum Stage {\n        Manufactured,\n        Packaged,\n        Shipped,\n        Received,\n        Sold\n    }\n\n    // Struct to store product details\n    struct Product {\n        uint id;\n        string name;\n        Stage currentStage;\n        address currentOwner;\n        uint timestamp;\n        mapping(address => bool) authorizedParties;\n    }\n\n    // Mapping to store all products\n    mapping(uint => Product) public products;\n    uint public productCount;\n\n    // Events for tracking\n    event StageUpdated(uint indexed productId, Stage stage, address by, uint timestamp);\n    event OwnershipTransferred(uint indexed productId, address from, address to);\n\n    // Modifier to check authorized parties\n    modifier onlyAuthorized(uint _productId) {\n        require(products[_productId].authorizedParties[msg.sender], \"Not authorized\");\n        _;\n    }\n\n    // Constructor - contract deployer is initially authorized\n    constructor() {\n    productCount = 0;\n}\n\n    // Create a new product\n    function createProduct(string memory _name) public returns (uint) {\n        productCount++;\n        \n        Product storage newProduct = products[productCount];\n        newProduct.id = productCount;\n        newProduct.name = _name;\n        newProduct.currentStage = Stage.Manufactured;\n        newProduct.currentOwner = msg.sender;\n        newProduct.timestamp = block.timestamp;\n        newProduct.authorizedParties[msg.sender] = true;\n\n        emit StageUpdated(productCount, Stage.Manufactured, msg.sender, block.timestamp);\n        return productCount;\n    }\n\n    // Add authorized party\n    function addAuthorizedParty(uint _productId, address _party) public {\n        require(products[_productId].currentOwner == msg.sender, \"Only owner can authorize\");\n        products[_productId].authorizedParties[_party] = true;\n    }\n\n    // Update product stage\n    function updateStage(uint _productId, Stage _newStage) public onlyAuthorized(_productId) {\n        require(_productId <= productCount && _productId > 0, \"Invalid product ID\");\n        require(uint(_newStage) > uint(products[_productId].currentStage), \"Can only move forward\");\n        \n        products[_productId].currentStage = _newStage;\n        products[_productId].timestamp = block.timestamp;\n        \n        emit StageUpdated(_productId, _newStage, msg.sender, block.timestamp);\n    }\n\n    // Transfer ownership\n    function transferOwnership(uint _productId, address _newOwner) public onlyAuthorized(_productId) {\n        require(products[_productId].currentOwner == msg.sender, \"Only current owner can transfer\");\n        require(_newOwner != address(0), \"Invalid new owner address\");\n        \n        products[_productId].currentOwner = _newOwner;\n        products[_productId].authorizedParties[_newOwner] = true;\n        products[_productId].timestamp = block.timestamp;\n        \n        emit OwnershipTransferred(_productId, msg.sender, _newOwner);\n    }\n\n    // Get product details\n    function getProductDetails(uint _productId) public view returns (\n        uint id,\n        string memory name,\n        Stage currentStage,\n        address currentOwner,\n        uint timestamp\n    ) {\n        require(_productId <= productCount && _productId > 0, \"Invalid product ID\");\n        \n        Product storage product = products[_productId];\n        return (\n            product.id,\n            product.name,\n            product.currentStage,\n            product.currentOwner,\n            product.timestamp\n        );\n    }\n}",
  "sourcePath": "/Users/adminn/Documents/blockchain/smart_contracts_solidity/contracts/SupplyChain.sol",
  "compiler": {
    "name": "solc",
    "version": "0.8.0+commit.c7dfd78e.Emscripten.clang"
  },
  "schemaVersion": "3.4.16",
  "updatedAt": "2025-02-24T15:50:57.700Z",
  "networkType": "ethereum",
  "devdoc": {
    "kind": "dev",
    "methods": {},
    "version": 1
  },
  "userdoc": {
    "kind": "user",
    "methods": {},
    "version": 1
  }
}