{
  "contractName": "Voting",
  "abi": [
    {
      "inputs": [],
      "name": "candidateCount",
      "outputs": [
        {
          "internalType": "uint256",
          "name": "",
          "type": "uint256"
        }
      ],
      "stateMutability": "view",
      "type": "function",
      "constant": true
    },
    {
      "inputs": [
        {
          "internalType": "uint256",
          "name": "",
          "type": "uint256"
        }
      ],
      "name": "candidates",
      "outputs": [
        {
          "internalType": "string",
          "name": "name",
          "type": "string"
        },
        {
          "internalType": "uint256",
          "name": "voteCount",
          "type": "uint256"
        }
      ],
      "stateMutability": "view",
      "type": "function",
      "constant": true
    },
    {
      "inputs": [
        {
          "internalType": "address",
          "name": "",
          "type": "address"
        }
      ],
      "name": "hasVoted",
      "outputs": [
        {
          "internalType": "bool",
          "name": "",
          "type": "bool"
        }
      ],
      "stateMutability": "view",
      "type": "function",
      "constant": true
    },
    {
      "inputs": [
        {
          "internalType": "string",
          "name": "_name",
          "type": "string"
        }
      ],
      "name": "addCandidate",
      "outputs": [],
      "stateMutability": "nonpayable",
      "type": "function"
    },
    {
      "inputs": [
        {
          "internalType": "uint256",
          "name": "_candidateId",
          "type": "uint256"
        }
      ],
      "name": "vote",
      "outputs": [],
      "stateMutability": "nonpayable",
      "type": "function"
    }
  ],
  "bytecode": "0x608060405234801561001057600080fd5b50610980806100206000396000f3fe608060405234801561001057600080fd5b50600436106100575760003560e01c80630121b93f1461005c57806309eef43e146100785780633477ee2e146100a8578063462e91ec146100d9578063a9a981a3146100f5575b600080fd5b61007660048036038101906100719190610556565b610113565b005b610092600480360381019061008d91906104ec565b610276565b60405161009f9190610656565b60405180910390f35b6100c260048036038101906100bd9190610556565b610296565b6040516100d0929190610671565b60405180910390f35b6100f360048036038101906100ee9190610515565b610342565b005b6100fd6103b1565b60405161010a91906106e1565b60405180910390f35b600160003373ffffffffffffffffffffffffffffffffffffffff1673ffffffffffffffffffffffffffffffffffffffff16815260200190815260200160002060009054906101000a900460ff16156101a0576040517f08c379a0000000000000000000000000000000000000000000000000000000008152600401610197906106a1565b60405180910390fd5b60025481111580156101b25750600081115b6101f1576040517f08c379a00000000000000000000000000000000000000000000000000000000081526004016101e8906106c1565b60405180910390fd5b60018060003373ffffffffffffffffffffffffffffffffffffffff1673ffffffffffffffffffffffffffffffffffffffff16815260200190815260200160002060006101000a81548160ff021916908315150217905550600080828152602001908152602001600020600101600081548092919061026e90610835565b919050555050565b60016020528060005260406000206000915054906101000a900460ff1681565b60006020528060005260406000206000915090508060000180546102b990610803565b80601f01602080910402602001604051908101604052809291908181526020018280546102e590610803565b80156103325780601f1061030757610100808354040283529160200191610332565b820191906000526020600020905b81548152906001019060200180831161031557829003601f168201915b5050505050908060010154905082565b6002600081548092919061035590610835565b919050555060405180604001604052808281526020016000815250600080600254815260200190815260200160002060008201518160000190805190602001906103a09291906103b7565b506020820151816001015590505050565b60025481565b8280546103c390610803565b90600052602060002090601f0160209004810192826103e5576000855561042c565b82601f106103fe57805160ff191683800117855561042c565b8280016001018555821561042c579182015b8281111561042b578251825591602001919060010190610410565b5b509050610439919061043d565b5090565b5b8082111561045657600081600090555060010161043e565b5090565b600061046d6104688461072d565b6106fc565b90508281526020810184848401111561048557600080fd5b6104908482856107c1565b509392505050565b6000813590506104a78161091c565b92915050565b600082601f8301126104be57600080fd5b81356104ce84826020860161045a565b91505092915050565b6000813590506104e681610933565b92915050565b6000602082840312156104fe57600080fd5b600061050c84828501610498565b91505092915050565b60006020828403121561052757600080fd5b600082013567ffffffffffffffff81111561054157600080fd5b61054d848285016104ad565b91505092915050565b60006020828403121561056857600080fd5b6000610576848285016104d7565b91505092915050565b6105888161078b565b82525050565b60006105998261075d565b6105a38185610768565b93506105b38185602086016107d0565b6105bc8161090b565b840191505092915050565b60006105d4600d83610768565b91507f416c726561647920766f746564000000000000000000000000000000000000006000830152602082019050919050565b6000610614601183610768565b91507f496e76616c69642063616e6469646174650000000000000000000000000000006000830152602082019050919050565b610650816107b7565b82525050565b600060208201905061066b600083018461057f565b92915050565b6000604082019050818103600083015261068b818561058e565b905061069a6020830184610647565b9392505050565b600060208201905081810360008301526106ba816105c7565b9050919050565b600060208201905081810360008301526106da81610607565b9050919050565b60006020820190506106f66000830184610647565b92915050565b6000604051905081810181811067ffffffffffffffff82111715610723576107226108dc565b5b8060405250919050565b600067ffffffffffffffff821115610748576107476108dc565b5b601f19601f8301169050602081019050919050565b600081519050919050565b600082825260208201905092915050565b600061078482610797565b9050919050565b60008115159050919050565b600073ffffffffffffffffffffffffffffffffffffffff82169050919050565b6000819050919050565b82818337600083830152505050565b60005b838110156107ee5780820151818401526020810190506107d3565b838111156107fd576000848401525b50505050565b6000600282049050600182168061081b57607f821691505b6020821081141561082f5761082e6108ad565b5b50919050565b6000610840826107b7565b91507fffffffffffffffffffffffffffffffffffffffffffffffffffffffffffffffff8214156108735761087261087e565b5b600182019050919050565b7f4e487b7100000000000000000000000000000000000000000000000000000000600052601160045260246000fd5b7f4e487b7100000000000000000000000000000000000000000000000000000000600052602260045260246000fd5b7f4e487b7100000000000000000000000000000000000000000000000000000000600052604160045260246000fd5b6000601f19601f8301169050919050565b61092581610779565b811461093057600080fd5b50565b61093c816107b7565b811461094757600080fd5b5056fea26469706673582212201402a173794ca7d8700c8c91333dfa4e26eff5dcd53ef310096e131949646fa064736f6c63430008000033",
  "immutableReferences": {},
  "source": "// SPDX-License-Identifier: MIT\npragma solidity ^0.8.0;\n\ncontract Voting {\n    struct Candidate {\n        string name;\n        uint voteCount;\n    }\n\n    mapping(uint => Candidate) public candidates;\n    mapping(address => bool) public hasVoted;\n    uint public candidateCount;\n\n    function addCandidate(string memory _name) external {\n        candidateCount++;\n        candidates[candidateCount] = Candidate(_name, 0);\n    }\n\n    function vote(uint _candidateId) external {\n        require(!hasVoted[msg.sender], \"Already voted\");\n        require(_candidateId <= candidateCount && _candidateId > 0, \"Invalid candidate\");\n        hasVoted[msg.sender] = true;\n        candidates[_candidateId].voteCount++;\n    }\n}",
  "sourcePath": "/Users/adminn/Documents/blockchain/smart_contracts_solidity/contracts/Voting.sol",
  "compiler": {
    "name": "solc",
    "version": "0.8.0+commit.c7dfd78e.Emscripten.clang"
  },
  "schemaVersion": "3.4.16",
  "updatedAt": "2025-02-24T15:50:57.848Z",
  "networkType": "ethereum",
  "devdoc": {
    "kind": "dev",
    "methods": {},
    "version": 1
  },
  "userdoc": {
    "kind": "user",
    "methods": {},
    "version": 1
  }
}